:020000040800F2
:10000000D029002089010008B5450008213D0008DD
:1000100085430008ED050008DD56000800000000DB
:10002000000000000000000000000000914B0008EC
:100030004D09000800000000614800087D4C0008E0
:10004000A3010008A3010008A3010008A301000800
:10005000A3010008A3010008A3010008A3010008F0
:10006000A3010008A3010008A3010008A3010008E0
:10007000A30100085906000869060008790600086F
:100080008906000899060008A3010008BD5600086B
:10009000CD560008A3010008A3010008A301000831
:1000A000A3010008294D0008A3010008A3010008CE
:1000B000394D0008A3010008A3010008A3010008AE
:1000C000A3010008A3010008A3010008A301000880
:1000D000A30100086956000885560008A1560008CB
:1000E000A3010008A3010008A301000800F002F822
:1000F00000F03AF80AA090E8000C82448344AAF188
:100100000107DA4501D100F02FF8AFF2090EBAE885
:100110000F0013F0010F18BFFB1A43F0010318473B
:10012000F096000010970000103A24BF78C878C1FC
:10013000FAD8520724BF30C830C144BF04680C60ED
:10014000704700000023002400250026103A28BF35
:1001500078C1FBD8520728BF30C148BF0B60704739
:100160001FB51FBD10B510BD00F05AF91146FFF7BD
:10017000F7FF05F0C5FF00F078F903B4FFF7F2FFD1
:1001800003BC00F07BF9000009488047094800479C
:10019000FEE7FEE7FEE7FEE7FEE7FEE7FEE7FEE737
:1001A000FEE7FEE704480549054A064B7047000094
:1001B000254D0008ED000008D0230020D0290020A4
:1001C000D0250020D025002053EA020C00F06980E1
:1001D0002DE9F04B4FF00006002B1FBFB3FA83F55B
:1001E00003FA05F424FA05F65E4012BF1643B2FA8C
:1001F00082F502FA05F4C5F120051EBF22FA05FCBE
:1002000044EA0C04203556EA044C4FEA144418BF63
:10021000641C4FF000084FF00009904271EB030C92
:1002200039D3002919BFB1FA81F701FA07F6B0FAFC
:1002300080F700FA07F6C7F120071EBF20FA07FC77
:1002400046EA0C062037B6FBF4FCA7EB0507103F87
:1002500007F01F0BCBF120062CFA06F60CFA0BFB6D
:1002600044BFB3460026202FA4BF5E464FF0000BCC
:100270005BEA060C08BF4FF0010B19EB0B0948EBCA
:100280000608ABFB027C06FB02CC0BFB03CCC01BBD
:1002900071EB0C01C1E70B46024641464846BDE8FA
:1002A000F08B13B5084318BF4FF0FF300146AFF392
:1002B0000080BDE81C407047032A40F2308010F0F7
:1002C000030C00F0158011F8013BBCF1020F6244F1
:1002D00098BF11F801CB00F8013B38BF11F8013B82
:1002E000A2F1040298BF00F801CB38BF00F8013B2F
:1002F00011F0030300F05A80083AC0F0088051F86A
:10030000043B083A51F804CBA0E80810F5E7121DA9
:100310005CBF51F8043B40F8043BAFF30080D207C8
:1003200024BF11F8013B11F801CB48BF11F8012B94
:1003300024BF00F8013B00F801CB48BF00F8012BB7
:1003400070474FF0000200B5134694469646203998
:1003500022BFA0E80C50A0E80C50B1F12001BFF47E
:10036000F7AF090728BFA0E80C5048BF0CC05DF8E4
:1003700004EB890028BF40F8042B08BF704748BF32
:1003800020F8022B11F0804F18BF00F8012B7047A6
:1003900070477047704710B500F03AF8006810BD1C
:1003A00010B5044600F034F8046010BD10B5203AD2
:1003B000C0F00B80B1E81850A0E81850B1E8185010
:1003C000A0E81850203ABFF4F5AF5FEA027C24BFE2
:1003D000B1E81850A0E8185044BF18C918C0BDE8CB
:1003E00010405FEA827C24BF51F8043B40F8043B94
:1003F00008BF7047D20728BF31F8023B48BF11F849
:10040000012B28BF20F8023B48BF00F8012B7047A2
:10041000004870471000002000487047100000207E
:100420007546FFF7F9FFAE4605006946534620F0D2
:100430000700854618B020B5FFF7B4FEBDE82040A0
:100440004FF000064FF000074FF000084FF0000B90
:10045000AC46ACE8C009ACE8C009ACE8C009ACE8FF
:10046000C00921F007018D46704710B50446AFF36F
:1004700000802046BDE81040FFF77FBE01491820EC
:10048000ABBEFEE7260002007047000080B58AB0D0
:10049000482000F099F900F0ABF840F60450C2F2A1
:1004A000000002F0A5FC40F6DC50C2F20000026839
:1004B000D16841F01001D16040F69821C2F20001EC
:1004C000132203F061FB40F69450C2F20000026870
:1004D000D16841F01001D16040F6D021C2F2000194
:1004E000152203F051FB40F64030C2F200000890A4
:1004F00001210022099203F015FC0898099A0221B3
:1005000003F010FC642005F02BFE40F27002C2F2F2
:1005100000020020C4F2F01050600020CCF2F01075
:10052000906040F2A800C2F20000D0F86817116194
:100530004BF67711A0F89618B0F99408B0F5004F73
:1005400014DAFFE740F2A800C2F20000B0F9940804
:1005500043F67811884209DBFFE740F2A801C2F2B6
:1005600000014FF6FF70A1F8B408FFE740F2A800C1
:10057000C2F200004AF65601A0F85E1703F08CFCA8
:1005800042F29030C2F20000039041F26F21C3F6B4
:100590008321029103F04AFF029940F62C60C2F2D7
:1005A0000000059003F042FF03986A460021C4F260
:1005B0002011049111600021C4F2FA314FF07C52F5
:1005C00006920023C4F2A013079303F06DFF049971
:1005D0000598069A079BEC46CCF800100021C4F25F
:1005E0007A4103F061FF0AB080BD0000FFE7FEE73B
:1005F00080B58CB00E200B90079001210A9100204D
:10060000089009910290039004900590079006903D
:1006100040F64030C2F20000019002A900F076FAE4
:10062000019800F0F9FF0198022100F099F90CB04F
:1006300080BD000081B000900099088801300880DA
:1006400000980088652804DBFFE700996420088093
:10065000FFE701B07047000080B540F67840C2F275
:10066000000001F007F980BD80B540F6AC30C2F261
:10067000000001F0FFF880BD80B540F66830C2F29E
:10068000000001F0F7F880BD80B540F6F030C2F20E
:10069000000001F0EFF880BD80B540F63440C2F2B2
:1006A000000001F0E7F880BD84B003900291019250
:1006B00000930398C16B026C012090404860009841
:1006C00003990968486003984068102809D1FFE73A
:1006D0000198039909688860029803990968C860BD
:1006E00008E00298039909688860019803990968ED
:1006F000C860FFE704B0704781B041F20400CEF259
:10070000000000680090009840F68021C2F20001CD
:100710000968884208D2FFE740F68421C2F200014E
:10072000086801300860FFE7009840F68021C2F2B7
:100730000001086001B0704780B584B0039041F2B9
:100740000400CEF200000068029002980399096844
:10075000401A08F073FD009040F66820C2F20000D5
:10076000006808F06BFD0146009808F03DFC019020
:10077000029803990860FFF7BFFF019804B080BD9D
:1007800080B584B000F064F840F6C821C2F20001E0
:10079000019108688A884FF47A7100FB012008F003
:1007A0004DFD014601980291C08808F02FFD41F2ED
:1007B0006F21C3F6832108F0BDFD029908F076FB96
:1007C0000390039804B080BD81B000904EF6FC51B8
:1007D000CEF20001086840F08070086041F2040128
:1007E000CEF200010020086041F20002CEF20002C9
:1007F000116841F001011160009944F24022C0F2F9
:100800000F024A4340F66821C2F200010A600A68FA
:1008100044F6D353C1F26203A2FB0332920940F6BD
:100820006C23C2F200031A6009684DF68362C4F2B9
:100830001B32A1FB0221890C40F67022C2F2000299
:10084000116040F68421C2F20001086001B07047D7
:10085000B0B586B041F20400CEF200000068059009
:10086000FFF74AFF40F68420C2F2000001680598B5
:10087000002302934FF0FF3C1A46E1FB0C0240F6C6
:100880007821C2F2000100914A6008600868496856
:1008900040F66824C2F200042268FFF795FC029B30
:1008A00002468C46009940F6B020C2F20000C0F823
:1008B00004C00260D1F800C04968D0F800E0426886
:1008C0002468AEFB04E502FB0452BCEB0E0C61EBAA
:1008D000020240F6B821C2F200010391C1F800C043
:1008E0004A60006840F6C822C2F20002049210601A
:1008F0000868496840F66C22C2F200020192126850
:10090000FFF762FCDDF804C0029B049A01460398DD
:100910009180016840689288DCF800C002FB0CF20C
:100920008A1A60F1000040F6C021C2F200010A609C
:1009300048600868496840F67022C2F200021268F6
:10094000FFF742FC0499C88006B0B0BD70470000B4
:1009500081B0EFF3108072B60090FFE7FEE7000071
:1009600084B002900191029890F820008DF8030065
:100970009DF80300012805D0FFE79DF80300022839
:100980000AD1FFE7019A029801684869104348615B
:1009900000208DF80F0008E00299486A40F480209A
:1009A000486201208DF80F00FFE79DF80F0004B0AA
:1009B0007047000088B00690059104920393069852
:1009C00090F820008DF80700069800688068009075
:1009D0000598806808B9FFE700E0FFE79DF8070089
:1009E000012806D0FFE79DF80700022840F080802C
:1009F000FFE79DF80300400700280CD4FFE79DF8AF
:100A000003000007002806D4FFE79DF80300C00696
:100A1000002864D5FFE70098C0F3016002900299B6
:100A200001208840039908600598806868B9FFE74D
:100A300005980168C06840EA415006990968029A21
:100A400001EB0211C1F880010EE005994A6888683F
:100A5000C96840EAC200084306990968029A01EB96
:100A60000211C1F88001FFE705980069069909683D
:100A7000029A01EB0211C1F884010598007D01285A
:100A80000CD1FFE706980068029900EB0111D1F83C
:100A9000840140F48070C1F88401FFE70498406845
:100AA00006990968029A01EB0211C1F88C010498B9
:100AB000006806990968029A01EB0211C1F88801E1
:100AC00006980068029900EB0111D1F8800140F00E
:100AD0000100C1F8800100208DF81F0011E0069987
:100AE000486A40F40010486201208DF81F0008E0B9
:100AF0000699486A40F48020486201208DF81F0062
:100B0000FFE79DF81F0008B07047000086B0049012
:100B10000391049800680190049890F820008DF8E3
:100B200003009DF80300012806D0FFE79DF80300AD
:100B3000022840F09B80FFE70199D1F8000240F0C5
:100B40000100C1F800020398406900F01F01012074
:100B500088400290029A0199D1F81C029043C1F892
:100B60001C020398C069F0B9FFE7029A0199D1F815
:100B70000C029043C1F80C02039A9088D168526924
:100B800040EA0140019901EBC201C1F84002039A19
:100B900010889168526940EA0140019901EBC20155
:100BA000C1F84402FFE70398C06901281ED1FFE79E
:100BB000029A0199D1F80C021043C1F80C02039A71
:100BC00090881168526940EA0140019901EBC20125
:100BD000C1F84002039A90899168526940EA014045
:100BE000019901EBC201C1F84402FFE70398806953
:100BF00040B9FFE7029A0199D1F804029043C1F885
:100C0000040207E0029A0199D1F804021043C1F8E6
:100C10000402FFE70398006940B9FFE7029A0199CF
:100C2000D1F814029043C1F8140207E0029A019926
:100C3000D1F814021043C1F81402FFE70398006AC8
:100C4000012808D1FFE7029A0199D1F81C0210434C
:100C5000C1F81C02FFE70199D1F8000220F0010061
:100C6000C1F8000200208DF8170008E00499486AD6
:100C700040F48020486201208DF81700FFE79DF8BE
:100C8000170006B07047000081B0009001B07047B7
:100C900086B00490039102920193049890F820008A
:100CA0008DF803009DF80300012806D0FFE79DF8AA
:100CB0000300022840F0E880FFE7039880B9FFE7CF
:100CC00004980068C068800748B9FFE70499486A3B
:100CD00040F40010486201208DF81700DDE00FE0BD
:100CE000049800680069800748B9FFE70499486ADA
:100CF00040F40010486201208DF81700CDE0FFE7B6
:100D000004980068039900EB0110D0F8B00100F0DE
:100D10000400029988600298806858B9FFE7049837
:100D20000068039900EB0110D0F8B001400D029962
:100D300008600AE004980068039900EB0110D0F8FD
:100D4000B001C00802994860FFE704980068039961
:100D500000EB0110D0F8B00100F002000299C86069
:100D600004980068039900EB0110D0F8B40100F07A
:100D70000F00082804D3FFE70299082008610BE060
:100D800004980068039900EB0110D0F8B40100F05A
:100D90000F0002990861FFE704980068039900EBCF
:100DA0000110D0F8B40180B2000A02998861049859
:100DB0000068039900EB0110D0F8B401000C02990F
:100DC000486104980068039900EB0110D0F8B8015D
:100DD0000199087004980068039900EB0110D0F89D
:100DE000B801000A0199487004980068039900EB63
:100DF0000110D0F8B801000C0199887004980068BF
:100E0000039900EB0110D0F8B801000E0199C870E9
:100E100004980068039900EB0110D0F8BC01019917
:100E2000087104980068039900EB0110D0F8BC0128
:100E3000000A0199487104980068039900EB0110B9
:100E4000D0F8BC01000C01998871049800680399DE
:100E500000EB0110D0F8BC01000E0199C871039895
:100E600038B9FFE704980168C86840F02000C860FE
:100E700006E004980168086940F020000861FFE777
:100E800000208DF8170008E00499486A40F480209B
:100E9000486201208DF81700FFE79DF8170006B0A3
:100EA0007047000080B58AB009900020089009982A
:100EB00000684069079009980068406806900998A2
:100EC00000688068059009980068C06804900998D7
:100ED00000680069039009980068806902909DF895
:100EE0001C00C007002800F09480FFE79DF8140064
:100EF000C00758B3FFE709980168012088609DF892
:100F000014008007002804D5FFE7099800F0CEFB05
:100F10001BE09DF814004007002805D5FFE708985E
:100F200040F4006008900FE09DF8140000070028CE
:100F300005D5FFE7089840F48050089003E0099831
:100F400000F0B0FBFFE7FFE7FFE7FFE79DF81500C4
:100F5000C00760B3FFE7099801684FF480708860AC
:100F60009DF815008007002804D5FFE7099800F0D8
:100F7000A5FB1BE09DF815004007002805D5FFE7FD
:100F8000089840F4005008900FE09DF81500000705
:100F9000002805D5FFE7089840F48040089003E05A
:100FA000099800F087FBFFE7FFE7FFE7FFE79DF801
:100FB0001600C00760B3FFE7099801684FF480305E
:100FC00088609DF816008007002804D5FFE709987F
:100FD00000F07CFB1BE09DF816004007002805D5BB
:100FE000FFE7089840F4004008900FE09DF81600D5
:100FF0000007002805D5FFE7089840F480300890E6
:1010000003E0099800F05EFBFFE7FFE7FFE7FFE77B
:10101000FFE79DF81C000007002810D5FFE79DF8AA
:101020001000C006002809D5FFE7089840F40070BA
:101030000890099801681020C860FFE7FFE79DF855
:101040001C00400700280FD5FFE79DF8100000079F
:10105000002808D5FFE7099801680820C8600998AA
:1010600000F06CFAFFE7FFE79DF81C0080070028FE
:101070000BD5FFE709980068C068800720B1FFE73B
:10108000099800F05FFAFFE7FFE79DF81C004006B3
:10109000002810D5FFE79DF80C00C006002809D5F0
:1010A000FFE7089840F480600890099801681020D4
:1010B0000861FFE7FFE79DF81C00800600280FD5B8
:1010C000FFE79DF80C000007002808D5FFE7099806
:1010D000016808200861099800F092FAFFE7FFE72D
:1010E0009DF81C00C00600280BD5FFE70998006892
:1010F0000069800720B1FFE7099800F085FAFFE753
:10110000FFE79DF81E00800700280FD5FFE79DF838
:101110001800C006002808D5FFE7099801681020CC
:101120004860099800F074FAFFE7FFE79DF81E0099
:10113000C00778B1FFE79DF818000007002808D520
:10114000FFE70998016808204860099800F0C2FA92
:10115000FFE7FFE79DF81D000006002840F18D80A5
:10116000FFE79DF818004007002840F18180FFE765
:101170009DF81D00C00750B1FFE79DF80800C007AB
:1011800028B1FFE7089840F001000890FFE79DF8BC
:101190001D00800700280BD5FFE79DF80800800799
:1011A000002805D5FFE7089840F002000890FFE707
:1011B0009DF81D00400700280BD5FFE79DF80800AB
:1011C0004007002805D5FFE7089840F00400089084
:1011D000FFE79DF81D000007002848D5FFE79DF8B0
:1011E000080010F0700F42D0FFE7029800F0700086
:1011F00001460191102814D0FFE70198202815D04E
:10120000FFE70198302816D0FFE70198402817D053
:10121000FFE70198502818D0FFE70198602819D0FF
:101220001DE0089840F00800089019E0089840F088
:101230001000089014E0089840F0200008900FE09B
:10124000089840F0400008900AE0089840F08000BC
:10125000089005E0089840F48070089000E0FFE7EF
:1012600009980168886920F070008861FFE7FFE74E
:101270000998016804204860FFE7089848B1FFE733
:10128000089A0999486A104348620998FFF7FCFCDC
:10129000FFE70AB080BD000080B584B002900298DC
:1012A00020B9FFE701208DF80F00E0E0029890F8E8
:1012B000200020B9FFE7029800F0DEF8FFE702986F
:1012C0000168086840F00100086000F091FE01909C
:1012D000FFE7029800684068C007A8B9FFE700F080
:1012E00087FE0199401A0B280DD3FFE70299486A3F
:1012F00040F4003048620299052081F82000012066
:101300008DF80F00B3E0E4E702980168086820F068
:101310000200086000F06CFE0190FFE70298006890
:1013200040688007002815D5FFE700F061FE0199AD
:10133000401A0B280DD3FFE70299486A40F40030A9
:1013400048620299052081F8200001208DF80F00E5
:101350008DE0E3E70298007E012807D1FFE70298BD
:101360000168086840F08000086006E002980168A3
:10137000086820F080000860FFE70298407E01289E
:1013800007D1FFE702980168086840F04000086054
:1013900006E002980168086820F040000860FFE756
:1013A0000298807E012807D1FFE70298016808684B
:1013B00040F02000086006E002980168086820F00C
:1013C00020000860FFE70298C07E012807D1FFE7F0
:1013D00002980168086820F01000086006E0029892
:1013E0000168086840F010000860FFE70298007F7D
:1013F000012807D1FFE702980168086840F008005B
:10140000086006E002980168086820F0080008609B
:10141000FFE70298407F012807D1FFE702980168A3
:10142000086840F00400086006E002980168086857
:1014300020F004000860FFE7029B19685A6898686A
:10144000D3F80CC040EA0C00D3F810C040EA0C00FE
:101450005B691843013A1043C86102990020486251
:10146000029A012182F820108DF80F00FFE79DF805
:101470000F0004B080BD000080B58EB00D9000203C
:101480000C900B900A9009900D98006846F200416C
:10149000C4F2000188424ED1FFE7FFE741F21C0091
:1014A000C4F20200016841F000710160006800F0C0
:1014B000007008900898FFE7FFE741F21800C4F2B7
:1014C0000200016841F004010160006800F00400BE
:1014D00007900798FFE74FF40060099000200590FF
:1014E0000A9001200B9040F60000C4F20100019028
:1014F00009A9029100F0C0FB019802994FF48052B3
:10150000099202220A9203220C9200F0B5FB059A7E
:10151000132003900521049100F044FE039800F08D
:1015200037FE0499059A1420069000F03BFE0698B9
:1015300000F02EFEFFE70EB080BD000081B00090ED
:1015400001B0704780B58EB00D900D98002106AAAD
:1015500004ABFFF79DFB0D98006846F20041C4F212
:101560000001884249D1FFE70698039040F24111FB
:1015700088422DD0FFE70398B0F5A17F32D0FFE776
:10158000039840F20521884206D0FFE7039840F215
:10159000062188420ED02FE040F2A800C2F20000DF
:1015A00000F59C60029004A902F0B6FF029802F0D8
:1015B000D7FF21E040F2A800C2F2000000F5C360AE
:1015C000019004A902F0A8FF019802F0C9FF13E0FE
:1015D00040F2A800C2F2000000F5EA6004A902F09F
:1015E000CFFB09E040F2A800C2F2000000F688003C
:1015F00004A902F0C5FBFFE7FFE70EB080BD0000C5
:1016000081B0009001B0704781B0009001B0704788
:1016100081B0009001B0704780B584B0029002980C
:1016200090F8200001282FD1FFE70299022081F8CD
:10163000200002980168086820F00100086000F0AE
:10164000D7FC0190FFE7029800684068C007A8B186
:10165000FFE700F0CDFC0199401A0B280DD3FFE7FE
:101660000299486A40F4003048620299052081F8E6
:10167000200001208DF80F000FE0E4E70299002020
:1016800048628DF80F0008E00299486A40F4002093
:10169000486201208DF80F00FFE79DF80F0004B0AD
:1016A00080BD000081B0009001B0704781B0009013
:1016B00001B0704781B0009001B0704781B00090D8
:1016C00001B0704781B0009001B0704781B00090C8
:1016D00001B0704781B0009001B0704783B00190B5
:1016E00000208DF80300019890F8210002280DD009
:1016F000FFE7019904208863FFE70199002081F842
:101700002000FFE701208DF80B0021E0019801681F
:10171000086820F00E00086001980168086820F051
:10172000010008600198C16B026C01209040486084
:10173000FFE70199012081F82100FFE701990020CE
:1017400081F82000FFE79DF803008DF80B00FFE70C
:101750009DF80B0003B0704780B588B0079000205B
:101760008DF81B00079890F82100022807D0FFE7AA
:1017700007990420886301208DF81B0076E0079804
:101780000168086820F00E00086007980168086882
:1017900020F001000860079800680821C4F20201E7
:1017A000884203D1FFE70120059047E007980068D1
:1017B0001C21C4F20201884203D1FFE710200490EB
:1017C00039E0079800683021C4F20201884204D150
:1017D000FFE74FF4807003902AE0079800684421E7
:1017E000C4F20201884204D1FFE74FF48050029016
:1017F0001BE0079800685821C4F20201884204D116
:10180000FFE74FF4803001900CE0079801686C22EC
:10181000C4F202024FF08070914208BF4FF4801072
:101820000190FFE701980290FFE702980390FFE71D
:1018300003980490FFE704980590FFE705980421BA
:10184000C4F2020108600799012081F82100FFE736
:101850000799002081F82000FFE70798406B20B12E
:10186000FFE70798416B8847FFE7FFE79DF81B00FC
:1018700008B080BD80B58EB00D900D98C06B00682B
:101880000C900D98006800680B900C980D99096CED
:10189000C8404007002875D5FFE79DF82C00400799
:1018A00000286FD5FFE70D980068006880060028C3
:1018B00007D4FFE70D980168086820F0040008606D
:1018C000FFE70D9800680821C4F20201884203D1A5
:1018D000FFE704200A9047E00D9800681C21C4F23D
:1018E0000201884203D1FFE74020099039E00D98BA
:1018F00000683021C4F20201884204D1FFE74FF4AE
:10190000806008902AE00D9800684421C4F202012A
:10191000884204D1FFE74FF4804007901BE00D9808
:1019200000685821C4F20201884204D1FFE74FF455
:10193000802006900CE00D9801686C22C4F202022F
:101940004FF08060914208BF4FF480000690FFE79F
:1019500006980790FFE707980890FFE70898099016
:10196000FFE709980A90FFE70A980421C4F20201F0
:1019700008600D98C06A20B1FFE70D98C16A8847DA
:10198000FFE7B8E00C980D99096CC8408007002863
:1019900040F18080FFE79DF82C008007002879D572
:1019A000FFE70D9800680068800600280BD4FFE769
:1019B0000D980168086820F00A0008600D99012060
:1019C00081F82100FFE70D9800680821C4F20201A8
:1019D000884203D1FFE70220059047E00D98006898
:1019E0001C21C4F20201884203D1FFE720200490A9
:1019F00039E00D9800683021C4F20201884204D118
:101A0000FFE74FF4007003902AE00D98006844212E
:101A1000C4F20201884204D1FFE74FF40050029063
:101A20001BE00D9800685821C4F20201884204D1DD
:101A3000FFE74FF4003001900CE00D9801686C2234
:101A4000C4F202024FF00070914208BF4FF4001040
:101A50000190FFE701980290FFE702980390FFE7EB
:101A600003980490FFE704980590FFE70598042188
:101A7000C4F202010860FFE70D99002081F8200000
:101A8000FFE70D98806A20B1FFE70D98816A8847CB
:101A9000FFE72FE00C980D99096CC840000700285B
:101AA00027D5FFE79DF82C000007002821D5FFE788
:101AB0000D980168086820F00E0008600D98C26B50
:101AC000016C012000FA01F151600D9988630D99B4
:101AD00081F82100FFE70D99002081F82000FFE741
:101AE0000D98006B20B1FFE70D98016B8847FFE769
:101AF000FFE7FFE7FFE70EB080BD000083B0019075
:101B000000200090019820B9FFE701208DF80B001C
:101B100047E0019908684FF6F872CBF6FD72104461
:101B20004CF6CD42CCF6CC42A0FB02026FF0030093
:101B300000EA9200086401990020C4F20200C86320
:101B40000199022081F82100019800680068009046
:101B5000009843F6F0718843009001994868D1F8E5
:101B600008C0CB680A6940EA0C00184310434A6970
:101B700010438A691043C9690143009808430090E3
:101B80000098019909680860019900208863019A0A
:101B9000012182F82110019981F820008DF80B00B5
:101BA000FFE79DF80B0003B07047000080B586B0DA
:101BB000049003910292019300208DF80300FFE747
:101BC000049890F82000012804D1FFE702208DF846
:101BD00017004CE00499012081F82000FFE7FFE79F
:101BE000049890F82100012832D1FFE704990220DF
:101BF00081F821000499002088630498016808682E
:101C000020F00100086004980399029A019BFEF7F6
:101C10004BFD0498C06A38B1FFE704980168086872
:101C200040F00E0008600CE004980168086820F09D
:101C30000400086004980168086840F00A00086021
:101C4000FFE704980168086840F00100086009E0B7
:101C5000FFE70499002081F82000FFE702208DF8BB
:101C60000300FFE79DF803008DF81700FFE79DF8DC
:101C7000170006B080BD000090B00F900E910020BC
:101C80000D900990FFE70E9800680D99C840002854
:101C900000F07F81FFE70D99012088400C900E989D
:101CA00000680C9908400B900B980C99884240F002
:101CB0006C81FFE70E9840680590002851D0FFE73F
:101CC000059801283AD0FFE7059802283FD0FFE7A2
:101CD000059803285FD0FFE70598112832D0FFE769
:101CE0000598122838D0FFE705980021C1F21101AC
:101CF000884236D0FFE705980021C1F212018842E0
:101D00002FD0FFE705980021C1F22101884228D099
:101D1000FFE705980021C1F22201884221D0FFE7A8
:101D200005980021C1F2310188421AD0FFE70598D9
:101D30000021C1F23201884213D02FE00E98C06812
:101D400009902CE00E98C0680430099027E00E98A6
:101D5000C0680830099022E00E98C0680C300990E5
:101D60001DE00E98806818B9FFE70420099011E083
:101D70000E988068012806D1FFE7082009900C988A
:101D80000F99086105E0082009900C980F994861A7
:101D9000FFE7FFE703E00020099000E0FFE70B9872
:101DA000FF2803D8FFE70F98049003E00F98043052
:101DB0000490FFE7049808900B98FF2804D8FFE7E9
:101DC0000D988000039006E00D996FF01F0000EB66
:101DD00081000390FFE70398079008980068079A2E
:101DE0000F21914088430999914008430899086060
:101DF0000E98C079C006002840F1C680FFE7FFE7D3
:101E000041F21800C4F20200016841F001010160D2
:101E1000006800F0010006900698FFE70D9820F09A
:101E200003000821C4F2010140580A900D9800F007
:101E3000030081000F2000FA01F10A9888430A90FC
:101E40000F9840F60001C4F20101884203D1FFE778
:101E50000020029026E00F9840F60041C4F20101F4
:101E6000884203D1FFE70120019018E00F9841F26A
:101E70000001C4F20101884203D1FFE70220009073
:101E80000AE00F9941F20042C4F20102042091429B
:101E900008BF03200090FFE700980190FFE701983A
:101EA0000290FFE702980D9901F00301890000FA02
:101EB00001F10A9808430A900A980D9921F003014C
:101EC0000822C4F2010288500E988079C0060028CA
:101ED00009D5FFE70B9A40F20841C4F201010868F6
:101EE0001043086008E00B9A40F20841C4F2010177
:101EF000086890430860FFE70E9880798006002804
:101F000009D5FFE70B9A40F20C41C4F201010868C1
:101F10001043086008E00B9A40F20C41C4F2010142
:101F2000086890430860FFE70E98807980070028D2
:101F300009D5FFE70B9A40F20441C4F20101086899
:101F40001043086008E00B9A40F20441C4F201011A
:101F5000086890430860FFE70E988079C00748B191
:101F6000FFE70B9A40F20041C4F2010108681043F8
:101F7000086008E00B9A40F20041C4F201010868D1
:101F800090430860FFE7FFE7FFE70D9801300D90F1
:101F900079E610B07047000083B00290ADF80610EB
:101FA0000298C0680090009ABDF8060002EA00019D
:101FB000904340EA01400299086103B07047000075
:101FC00082B00190ADF802108DF801209DF801005B
:101FD00028B1FFE7BDF802000199086105E0BDF8EE
:101FE0000200000401990861FFE702B07047000099
:101FF00041F6DC30C2F200000068704740F2040095
:10200000C2F20000027841F6DC31C2F20001086839
:10201000104408607047000080B542F20001C4F22D
:102020000201086840F010000860032000F0D4F8B6
:102030000F2000F005F800F071F8002080BD0000CE
:1020400080B58CB00B900020059004908DF80B00AB
:10205000FFE741F21800C4F20200016841F4006198
:102060000160006800F4006001900198FFE706A895
:1020700003A900F0E5F900F025FA059005984DF662
:102080008361C4F21B31A0FB01014FF0FF3000EB74
:102090009140049040F6BC40C2F2000042F600417C
:1020A000C4F20101016040F2E731C160049941606E
:1020B000002101618160816100F028FE8DF80B0034
:1020C0009DF80B0028BBFFE740F6BC40C2F20000C1
:1020D00000F08EFE8DF80B009DF80B00C0B9FFE7F5
:1020E000192000F055F80B980F280CD8FFE70B9932
:1020F0001920002200F056F80B9840F20801C2F2B5
:102100000001086003E001208DF80B00FFE7FFE706
:10211000FFE79DF80B000CB080BD000080B584B0D7
:10212000FFE741F21800C4F20200016841F001012A
:102130000160006800F0010003900398FFE7FFE7EB
:1021400041F21C00C4F20200016841F080510160BC
:10215000006800F0805002900298FFE76FF00100E5
:102160000F21002200F01EF8FFE70421C4F2010154
:1021700008680190019820F0E0600190019840F01B
:102180000070019001980860FFE704B080BD000076
:1021900080B582B08DF807009DF9070003F0B8FC08
:1021A00002B080BD80B586B08DF81700049103920F
:1021B0000020029003F0C4FC02909DF917000190EA
:1021C00002980499039A02F0F7F90146019803F086
:1021D000BFFC06B080BD000080B582B001900198C0
:1021E00003F0D8FC02B080BD80B584B002900191AC
:1021F000029820B9FFE701208DF80F001BE101983C
:1022000042F20001C4F20201096801F007018842AC
:1022100016D9FFE742F20000C4F20200016821F083
:102220000701019A11430160006800F0070001995D
:10223000884204D0FFE701208DF80F00FBE0FFE7A4
:1022400002980078800700282AD5FFE702980078D6
:102250004007002809D5FFE741F20401C4F202015A
:10226000086840F4E0600860FFE702980078000723
:10227000002809D5FFE741F20401C4F20201086811
:1022800040F460500860FFE741F20401C4F202012B
:10229000086820F0F000029A926810430860FFE797
:1022A00002980078C007002860D0FFE702984068D5
:1022B00001280ED1FFE741F20000C4F202000068DD
:1022C0008003002804D4FFE701208DF80F00B2E05E
:1022D00021E00298406802280ED1FFE741F2000099
:1022E000C4F2020000688001002804D4FFE7012046
:1022F0008DF80F009FE00DE041F20000C4F20200F3
:1023000000688007002804D4FFE701208DF80F0043
:1023100091E0FFE7FFE741F20401C4F2020108681F
:1023200020F00300029A526810430860FFF760FE35
:102330000090FFE741F20400C4F20200006800F0E0
:102340000C0002994968B0EB810F0ED0FFE7FFF750
:102350004FFE0099401A41F28931884204D3FFE7C9
:1023600003208DF80F0066E0E4E7FFE7019842F2F2
:102370000001C4F20201096801F00701884216D287
:10238000FFE742F20000C4F20200016821F00701F9
:10239000019A11430160006800F00700019988422A
:1023A00004D0FFE701208DF80F0044E0FFE702981A
:1023B0000078400700280CD5FFE741F20401C4F281
:1023C0000201086820F4E060029AD26810430860B5
:1023D000FFE702980078000700280DD5FFE741F2DB
:1023E0000401C4F20201086820F46050029A1269E4
:1023F00040EAC2000860FFE700F076F841F204010D
:10240000C4F202010968C9B20A0949F2B071C0F602
:102410000001895CC84040F20001C2F2000108607E
:1024200040F20800C2F200000068FFF709FE002039
:102430008DF80F00FFE79DF80F0004B080BD00008D
:1024400082B00190009101990F20086041F20400D0
:10245000C4F20200016801F00301019A51600168B1
:1024600001F0F001019A9160016801F4E061019AC4
:10247000D160006800F46050C0080199086142F220
:102480000000C4F20200006800F007000099086034
:1024900002B0704740F20000C2F2000000687047CE
:1024A00080B5FFF7F7FF41F20401C4F202010968A9
:1024B000C1F3022249F2C071C0F60001895CC84034
:1024C00080BD000080B5FFF7E5FF41F20401C4F2D2
:1024D00002010968C1F3C22249F2C071C0F60001CD
:1024E000895CC84080BD000086B000200590049043
:1024F00003900290019041F20400C4F202000068CF
:102500000590059800F00C000146009100283FD08E
:10251000FFE70098042804D0FFE70098082806D0B9
:1025200037E041F20020C0F27A00019037E00598D0
:10253000C0F3834149F2C870C0F60000405C0290CD
:102540009DF81600C007C0B1FFE741F20400C4F2D5
:1025500002000068C0F3404149F2D870C0F60000A4
:10256000405C0490029841F20021C0F27A01484395
:102570000499B0FBF1F0039007E0029840F60011D7
:10258000C0F23D0148430390FFE70398019006E045
:10259000FFE741F20020C0F27A000190FFE70198C6
:1025A00006B0704780B586B00490049820B9FFE764
:1025B00001208DF817002EE304980078C00700284A
:1025C00000F0AE80FFE741F20400C4F202000068B0
:1025D00000F00C00042813D0FFE741F20400C4F21D
:1025E0000200006800F00C0008281BD1FFE741F250
:1025F0000400C4F202000068C003002812D5FFE7FF
:1026000041F20000C4F2020000688003002808D5EF
:10261000FFE70498406820B9FFE701208DF8170014
:10262000F9E27CE0FFE704984068B0F5803F09D10B
:10263000FFE741F20001C4F20201086840F4803073
:10264000086032E00498406868B9FFE741F2000191
:10265000C4F20201086820F480300860086820F4A1
:102660008020086020E004984068B0F5A02F0DD1CC
:10267000FFE741F20001C4F20201086840F4802043
:102680000860086840F4803008600CE041F2000106
:10269000C4F20201086820F480300860086820F461
:1026A00080200860FFE7FFE7FFE7FFE70498406846
:1026B000D0B1FFE7FFF79CFC0390FFE741F2000079
:1026C000C4F202000068800300280CD4FFE7FFF783
:1026D0008FFC0399401A652804D3FFE703208DF887
:1026E000170098E2EAE719E0FFF782FC0390FFE7A2
:1026F00041F20000C4F202000068800300280CD5FB
:10270000FFE7FFF775FC0399401A652804D3FFE73C
:1027100003208DF817007EE2EAE7FFE7FFE7FFE717
:10272000049800788007002840F18D80FFE741F28F
:102730000400C4F20200006810F00C0F13D0FFE791
:1027400041F20400C4F20200006800F00C00082806
:1027500029D1FFE741F20400C4F202000068C0037F
:10276000002820D4FFE741F20000C4F20200006814
:102770008007002809D5FFE704980069012804D0E4
:10278000FFE701208DF8170045E241F20001C4F295
:102790000201086820F0F800049A526940EAC20079
:1027A0000860FFE74EE00498006958B3FFE7002196
:1027B000C4F2422101200860FFF71AFC0390FFE7F2
:1027C00041F20000C4F202000068800700280CD427
:1027D000FFE7FFF70DFC0399401A032804D3FFE736
:1027E00003208DF8170016E2EAE741F20001C4F277
:1027F0000201086820F0F800049A526940EAC20019
:1028000008601EE00021C4F2422100200860FFF7AA
:10281000EFFB0390FFE741F20000C4F20200006802
:10282000800700280CD5FFE7FFF7E2FB0399401A69
:10283000032804D3FFE703208DF81700EBE1EAE754
:10284000FFE7FFE7FFE7049800780007002848D576
:10285000FFE70498806918B3FFE740F28041C4F2B3
:10286000422101200860FFF7C3FB0390FFE741F21C
:102870002400C4F202000068800700280CD4FFE79F
:10288000FFF7B6FB0399401A032804D3FFE70320A0
:102890008DF81700BFE1EAE7012002F003F81FE01E
:1028A00040F28041C4F2422100200860FFF7A0FB03
:1028B0000390FFE741F22400C4F2020000688007A1
:1028C00000280CD5FFE7FFF793FB0399401A032874
:1028D00004D3FFE703208DF817009CE1EAE7FFE748
:1028E000FFE7049800784007002840F1D880FFE710
:1028F00000208DF8070041F21C00C4F202000068BD
:10290000C000002813D4FFE7FFE741F21C00C4F227
:102910000200016841F080510160006800F08050C1
:1029200000900098FFE701208DF80700FFE747F2CD
:102930000000C4F200000068C005002822D4FFE7B0
:1029400047F20001C4F20001086840F4807008609A
:10295000FFF74EFB0390FFE747F20000C4F20000D0
:102960000068C00500280CD4FFE7FFF741FB03997E
:10297000401A652804D3FFE703208DF817004AE1C9
:10298000EAE7FFE7FFE70498C068012809D1FFE7FD
:1029900041F22001C4F20201086840F00100086021
:1029A00031E00498C06868B9FFE741F22001C4F241
:1029B0000201086820F001000860086820F00400A7
:1029C00008601FE00498C06805280DD1FFE741F2B8
:1029D0002001C4F20201086840F0040008600868A1
:1029E00040F0010008600CE041F22001C4F2020155
:1029F000086820F001000860086820F00400086002
:102A0000FFE7FFE7FFE7FFE70498C068E0B1FFE7F3
:102A1000FFF7EEFA0390FFE741F22000C4F2020054
:102A20000068800700280ED4FFE7FFF7E1FA03995A
:102A3000401A41F28931884204D3FFE703208DF820
:102A40001700E8E0E8E71BE0FFF7D2FA0390FFE7A2
:102A500041F22000C4F202000068800700280ED571
:102A6000FFE7FFF7C5FA0399401A41F2893188421E
:102A700004D3FFE703208DF81700CCE0E8E7FFE779
:102A80009DF80700012809D1FFE741F21C01C4F2BB
:102A90000201086820F080500860FFE7FFE7049813
:102AA000C069002800F0B380FFE741F20400C4F2DF
:102AB0000200006800F00C00082800F08280FFE7A8
:102AC0000498C06902285CD1FFE76021C4F242216A
:102AD00000200860FFF78CFA0390FFE741F2000046
:102AE000C4F202000068800100280CD5FFE7FFF760
:102AF0007FFA0399401A032804D3FFE703208DF8D7
:102B0000170088E0EAE70498006AB0F5803F0CD12E
:102B1000FFE741F20401C4F20201086820F400302A
:102B2000049A926810430860FFE741F20401C4F27E
:102B30000201086820F47410049B1A6A5B6A1A4345
:102B4000104308606021C4F2422101200860FFF7B1
:102B50004FFA0390FFE741F20000C4F20200006860
:102B6000800100280CD4FFE7FFF742FA0399401ACE
:102B7000032804D3FFE703208DF817004BE0EAE7B2
:102B80001EE06021C4F2422100200860FFF730FA05
:102B90000390FFE741F20000C4F2020000688001E8
:102BA00000280CD5FFE7FFF723FA0399401A032802
:102BB00004D3FFE703208DF817002CE0EAE7FFE7D6
:102BC00024E00498C069012804D1FFE701208DF8B2
:102BD000170020E041F20400C4F2020000680290F5
:102BE000029800F480300499096A884208D1FFE70E
:102BF000029800F470100499496A884204D0FFE7F3
:102C000001208DF8170006E0FFE7FFE7FFE700204F
:102C10008DF81700FFE79DF8170006B080BD000093
:102C200081B0009001B0704781B0009001B0704752
:102C300085B003900291FFE7039890F83C000128CB
:102C400004D1FFE702208DF813005BE00399012017
:102C500081F83C00FFE7FFE70399022081F83D007F
:102C600003980068406801900398006880680090AD
:102C7000019820F0700001900298016801980843C3
:102C8000019001980399096848600398006842F62A
:102C90000041C4F20101884218D0FFE703980068A0
:102CA000B0F1804F12D0FFE70398006840F2004176
:102CB000C4F20001884209D0FFE70398006840F69B
:102CC0000001C4F2000188420ED1FFE7009820F015
:102CD0008000009002984168009808430090009896
:102CE000039909688860FFE70399012081F83D0096
:102CF000FFE70399002081F83C00FFE700208DF8F2
:102D00001300FFE79DF8130005B0704780B582B04F
:102D10000090009820B9FFE701208DF807003FE000
:102D2000009890F83D0040B9FFE70099002081F835
:102D30003C00009800F038F8FFE70099022081F885
:102D40003D00009951F8040B01F0FEFF00990120AD
:102D500081F84600FFE70099012081F83E000099C4
:102D600081F83F00009981F84000009981F8410006
:102D7000FFE7FFE70099012081F84200009981F800
:102D80004300009981F84400009981F84500FFE76D
:102D90000099012081F83D0000208DF80700FFE731
:102DA0009DF8070002B080BD80B584B00390039801
:102DB0000068B0F1804F19D1FFE7FFE741F21C0036
:102DC000C4F20200016841F001010160006800F0F6
:102DD000010002900298FFE71C20019006210022CA
:102DE000FFF7E0F90198FFF7D3F9FFE704B080BDE2
:102DF00083B00190019890F83D00012804D0FFE7CE
:102E000001208DF80B0047E00199022081F83D0078
:102E100001980168C86840F00100C8600198006826
:102E200042F60041C4F20101884218D0FFE7019840
:102E30000068B0F1804F12D0FFE70198006840F2BF
:102E40000041C4F20001884209D0FFE70198006800
:102E500040F60001C4F20001884212D1FFE7019858
:102E60000068806800F0070000900098062807D0EE
:102E7000FFE701980168086840F001000860FFE77B
:102E800006E001980168086840F001000860FFE76B
:102E900000208DF80B00FFE79DF80B0003B0704792
:102EA00080B586B00490039100208DF80B00FFE7F9
:102EB000049890F83C00012804D1FFE702208DF827
:102EC0001700ABE00499012081F83C00FFE7FFE721
:102ED0000499022081F83D00049800688068019000
:102EE000019820F077000190019820F47F40019034
:102EF0000198049909688860039800680090002888
:102F000072D0FFE7009810286ED0FFE700982028C5
:102F10006AD0FFE70098302866D0FFE70098402885
:102F200055D0FFE70098502837D0FFE70098602879
:102F300040D0FFE7009870280BD0FFE70098B0F56D
:102F4000805F05D0FFE70098B0F5005F16D052E033
:102F500055E004980068039B5A689968DB6801F0A3
:102F600077FF0498006880680190019840F077002E
:102F70000190019804990968886040E0049800680D
:102F8000039B5A689968DB6801F062FF0498016846
:102F9000886840F48040886031E004980068039AB3
:102FA0005168D26801F084FF04980068502101F054
:102FB00069FF24E004980068039A5168D26801F020
:102FC0009FFF04980068602101F05CFF17E00498FF
:102FD0000068039A5168D26801F06AFF049800689B
:102FE000402101F04FFF0AE0049800680399096846
:102FF00001F048FF03E001208DF80B00FFE7049982
:10300000012081F83D00FFE70499002081F83C0091
:10301000FFE79DF80B008DF81700FFE79DF81700FC
:1030200006B080BD81B0009001B0704780B584B01B
:10303000039003980068C0680290039800680069D4
:1030400001909DF804008007002824D5FFE79DF833
:103050000800800700281DD5FFE7039801686FF07E
:1030600002000861039901200877039800688069CD
:10307000800720B1FFE70398FFF7D4FF06E003982D
:1030800000F0E2F8039800F0E3F8FFE7039900206E
:103090000877FFE7FFE79DF804004007002825D5E3
:1030A000FFE79DF80800400700281ED5FFE70398BA
:1030B00001686FF004000861039902200877039803
:1030C0000068806910F4407F04D0FFE70398FFF7A1
:1030D000A9FF06E0039800F0B7F8039800F0B8F8ED
:1030E000FFE7039900200877FFE7FFE79DF804005A
:1030F0000007002824D5FFE79DF8080000070028F6
:103100001DD5FFE7039801686FF008000861039977
:103110000420087703980068C069800720B1FFE7A2
:103120000398FFF77FFF06E0039800F08DF80398FF
:1031300000F08EF8FFE7039900200877FFE7FFE72C
:103140009DF80400C006002825D5FFE79DF808007B
:10315000C00600281ED5FFE7039801686FF0100035
:10316000086103990820087703980068C06910F483
:10317000407F04D0FFE70398FFF754FF06E0039871
:1031800000F062F8039800F063F8FFE7039900206D
:103190000877FFE7FFE79DF80400C00778B1FFE775
:1031A0009DF80800C00748B1FFE7039801686FF079
:1031B00001000861039800F04FF8FFE7FFE79DF872
:1031C00004000006002810D5FFE79DF8080000065F
:1031D000002809D5FFE7039801686FF080000861B7
:1031E0000398FFF71DFDFFE7FFE79DF80400400689
:1031F000002810D5FFE79DF808004006002809D5F3
:10320000FFE7039801686FF040000861039800F041
:1032100035F8FFE7FFE79DF804008006002810D589
:10322000FFE79DF808008006002809D5FFE703980E
:1032300001686FF0200008610398FFF7F5FCFFE7D5
:10324000FFE704B080BD000081B0009001B070477E
:1032500081B0009001B0704780B582B001900198B4
:10326000006842F60041C4F20101884203D1FFE741
:10327000FEF7C4FEFFE702B080BD000081B0009001
:1032800001B0704782B00190ADF8021002B07047F3
:1032900080B584B0039000200290039800684069D4
:1032A000C0B2C0090290039890F84100212823D1B0
:1032B000FFE7029800B3FFE7FFE7FFE70398006826
:1032C00050E8050F20F080000190FFE70199039876
:1032D000026842E805100028F0D1FFE7FFE70398F5
:1032E000806B28B1FFE70398806BFEF7F7F9FFE7E3
:1032F000039801F0B9FFFFE7039800684069C0F345
:1033000080100290039890F84200222823D1FFE712
:10331000029800B3FFE7FFE7FFE70398006850E873
:10332000050F20F040000090FFE700990398026825
:1033300042E805100028F0D1FFE7FFE70398C06BD3
:1033400028B1FFE70398C06BFEF7C8F9FFE70398C1
:1033500001F02CFFFFE7002004B080BD81B0009099
:1033600001B0704780B592B0119011980068006864
:10337000109011980068C0680F901198006840691B
:103380000E9000200D900C90109800F00F000D9002
:103390000D9888B9FFE79DF84000800600280AD5FF
:1033A000FFE79DF83C008006002804D5FFE7119850
:1033B00001F076FFE9E1FFE70D98002800F0C280F8
:1033C000FFE79DF83800C00738B9FFE7BDF83C00BB
:1033D00010F4907F00F0B680FFE79DF84000C00732
:1033E00058B1FFE79DF83D00C00730B1FFE71199E4
:1033F000486C40F001004864FFE79DF8400040073A
:1034000000280BD5FFE79DF83800C00730B1FFE773
:103410001199486C40F002004864FFE79DF84000B5
:10342000800700280BD5FFE79DF83800C00730B1B2
:10343000FFE71199486C40F004004864FFE79DF8ED
:1034400040000007002811D5FFE79DF83C008006EA
:10345000002805D4FFE79DF83800C00730B1FFE72A
:103460001199486C40F008004864FFE71198406CDF
:10347000002866D0FFE79DF84000800600280AD5A6
:10348000FFE79DF83C008006002804D5FFE711986F
:1034900001F006FFFFE7119800684069C0F3801053
:1034A0000C901198406C0007002804D4FFE70C989A
:1034B00000283ED0FFE7119801F078FE11980068CF
:1034C0004069400600282FD5FFE7FFE7FFE7119886
:1034D000006850E8050F20F040000B90FFE70B99C3
:1034E0001198026842E805100028F0D1FFE7FFE7D5
:1034F0001198C06B98B1FFE71198C16B44F65570F5
:10350000C0F6000048631198C06BFEF725F928B19A
:10351000FFE71198C06B416B8847FFE703E0119804
:10352000FFF71CFFFFE703E01198FFF717FFFFE726
:1035300006E01198FFF712FF119900204864FFE799
:10354000FFE722E11198006B012840F0FE80FFE7C1
:103550009DF84000C006002840F1F780FFE79DF885
:103560003C00C006002840F1F080FFE7FFE70020A4
:103570000A901198006800680A90119800684068E5
:103580000A900A98FFE711980068406940060028F1
:1035900040F18180FFE71198C06B00684068ADF88A
:1035A0002600BDF82600002874D0FFE7BDF82600ED
:1035B0001199898D88426DDAFFE7BDF826001199CF
:1035C000C8851198C06B8069202858D0FFE7FFE7B5
:1035D000FFE71198006850E8030F20F4807008900E
:1035E000FFE708991198026842E803100028F0D11B
:1035F000FFE7FFE7FFE7FFE71198006850E8050FD6
:1036000020F001000790FFE707991198026842E84F
:1036100005100028F0D1FFE7FFE7FFE7FFE711986B
:10362000006850E8050F20F040000690FFE706997B
:103630001198026842E805100028F0D1FFE7FFE783
:103640001199202081F84200119900200863FFE7BA
:10365000FFE71198006850E8030F20F01000059074
:10366000FFE705991198026842E803100028F0D19D
:10367000FFE7FFE71198C06BFEF730F8FFE71199FD
:10368000022048631198818DC28D891A89B2FFF793
:10369000F9FDFFE779E01199888DC98D401AADF8E1
:1036A00012001198C08D00284ED0FFE7BDF812001F
:1036B000002849D0FFE7FFE7FFE71198006850E8CE
:1036C000030F20F490700390FFE7039911980268AC
:1036D00042E803100028F0D1FFE7FFE7FFE7FFE72C
:1036E0001198006850E8050F20F001000290FFE7F4
:1036F00002991198026842E805100028F0D1FFE70E
:10370000FFE71199202081F84200119900200863F9
:10371000FFE7FFE71198006850E8030F20F0100062
:103720000190FFE701991198026842E80310002810
:10373000F0D1FFE7FFE71199022048631198BDF827
:103740001210FFF79FFDFFE71FE09DF84000000605
:1037500000280AD5FFE79DF83C000006002804D5A4
:10376000FFE7119801F036FF0FE09DF8400040069A
:1037700000280AD5FFE79DF83C004006002804D544
:10378000FFE7119801F05CFDFFE712B080BD00007B
:1037900080B582B00090009820B9FFE701208DF835
:1037A000070040E00098806908B1FFE700E0FFE70C
:1037B000009890F8410040B9FFE70099002081F897
:1037C0004000009800F034F8FFE70099242081F8C9
:1037D000410000980168C86820F40050C860009853
:1037E00001F014FE00980168086920F49040086117
:1037F00000980168486920F02A0048610098016833
:10380000C86840F40050C860009900204864009ADD
:10381000202182F84110009A82F8421000994863F2
:103820008DF80700FFE79DF8070002B080BD00009B
:1038300080B59CB01B9000201A901990189017909A
:103840001B98006843F60001C4F20101884240F071
:103850008F80FFE7FFE741F21800C4F20200016821
:1038600041F480410160006800F480401690169891
:10387000FFE7FFE741F21800C4F20200016841F0DF
:1038800004010160006800F0040015901598FFE73E
:103890004FF4007017900220189003201A9040F601
:1038A0000000C4F201000D9017A90E91FEF7E4F993
:1038B0000D980E994FF48062179200220F92189281
:1038C0001992FEF7D9F90F9940F66830C2F200005C
:1038D00010905822C4F2020202604160816080228E
:1038E000C2600161416181614FF44051C161FEF7E5
:1038F00005F918B1FFE7FDF72BF8FFE7FFE71B9885
:1039000040F66831C2F20001C1631B984862FFE7CC
:1039100040F6AC30C2F200000C904421C4F2020127
:10392000016010214160002181608022C26001613C
:10393000416181614FF44051C161FEF7DFF818B178
:10394000FFE7FDF705F8FFE7FFE71B9840F6AC310E
:10395000C2F2000181631B984862FFE725200B90AB
:1039600005210022FEF71EFC0B98FEF711FC08E172
:103970001B98006844F20041C4F20001884240F004
:103980008D80FFE7FFE741F21C00C4F202000168EE
:1039900041F400310160006800F400301490149884
:1039A000FFE7FFE741F21800C4F20200016841F0AE
:1039B00004010160006800F0040013901398FFE711
:1039C000042017900220189003201A9040F600005F
:1039D000C4F20100079017A90891FEF74DF9079866
:1039E0000899082217920022099218921992FEF75C
:1039F00043F9099940F63440C2F200000A9080224F
:103A0000C4F2020202601022426081608022C26021
:103A10000161416181614FF48051C161FEF76EF82F
:103A200018B1FFE7FCF794FFFFE7FFE71B9840F6AC
:103A30003441C2F2000181631B984862FFE740F6FF
:103A4000F030C2F2000006906C21C4F20201016065
:103A50000021416081608022C26001614161816119
:103A60004FF48051C161FEF749F818B1FFE7FCF748
:103A70006FFFFFE7FFE71B9840F6F031C2F200014D
:103A8000C1631B984862FFE72620059006210022AB
:103A9000FEF788FB0598FEF77BFB71E01B9800683A
:103AA00044F60001C4F20001884268D1FFE7FFE755
:103AB00041F21C00C4F20200016841F4802101605F
:103AC000006800F4802012901298FFE7FFE741F2AF
:103AD0001800C4F20200016841F0080101600068AA
:103AE00000F0080011901198FFE74FF480601790E4
:103AF0000220189003201A9040F60040C4F2010002
:103B0000019017A90291FEF7B7F8019802994FF4B6
:103B1000006217920022039218921992FEF7ACF8F5
:103B2000039940F67840C2F2000004903022C4F2BB
:103B300002020260416081608022C26001614161D5
:103B400081614FF44051C161FDF7D8FF18B1FFE723
:103B5000FCF7FEFEFFE7FFE71B9840F67841C2F254
:103B60000001C1631B984862FFE7272000900521F0
:103B70000022FEF717FB0098FEF70AFBFFE7FFE7BE
:103B8000FFE71CB080BD000080B584B002900191B9
:103B9000ADF80220029890F84200202817D1FFE7E4
:103BA000019820B1FFE7BDF8020020B9FFE701202E
:103BB0008DF80F000FE00299002008630298019928
:103BC000BDF8022001F080FC8DF80F0003E0022018
:103BD0008DF80F00FFE79DF80F0004B080BD0000D6
:103BE00081B000900098006843F60001C4F2010122
:103BF000884201D1FFE7FFE70098006844F20041E6
:103C0000C4F20001884201D1FFE7FFE70098006895
:103C100044F60001C4F20001884201D1FFE7FFE74A
:103C200001B0704781B0009001B0704780B586B098
:103C300004900391ADF80A20049890F841002028E0
:103C40005DD1FFE7039820B1FFE7BDF80A0020B976
:103C5000FFE701208DF8170055E0039804990862EA
:103C6000BDF80A0004998884BDF80A000499C88444
:103C7000049900204864049A212182F84110049993
:103C80008A6B45F21911C0F60001916204998A6BA2
:103C900045F29511C0F60001D16204998A6B44F691
:103CA0007571C0F6000111630499896B486303A81C
:103CB000019004980268806B019909680432BDF88C
:103CC0000A30FDF773FF049801686FF04000086048
:103CD000FFE7FFE70498006850E8050F40F0800018
:103CE0000090FFE700990498026842E80510002858
:103CF000F0D1FFE7FFE700208DF8170003E0022076
:103D00008DF81700FFE79DF8170006B080BD000092
:103D100081B0009001B0704781B0009001B0704751
:103D2000FFE7FEE780B58CB00B90ADF82A10099242
:103D300000200290BDF82A1001F5A07103910590B2
:103D4000069008210791A1218DF800108DF801003F
:103D50008DF802008DF803009DF824108DF80410F2
:103D60009DF825108DF805108DF806008DF80700D8
:103D70000B9803A96A4602ABFCF71CFE0CB080BD91
:103D800080B58AB00990089108984078099988759B
:103D900008998878C97840EA0120099988820999A8
:103DA000488A088208990879497940EA01200999E6
:103DB000488209998889488108998879C97940EAAF
:103DC0000120099988810998B0F90A10B0F90C000E
:103DD000401A05F01BFA46F20001CCF2EA6105F048
:103DE000E2F828B9FFE70999888D0130888515E048
:103DF0000998B0F90A10B0F90C00401A05F006FA5B
:103E000046F20001C4F2EA6105F0D4F828B9FFE7F0
:103E10000999888D01388885FFE7FFE70999888926
:103E2000488109980390B0F90C100091B0F92C006A
:103E300005F0ECF901460098019105F0E7F9002141
:103E4000C4F2B431059105F075FA4FF08F41049139
:103E500005F0CAF8059902460198029205F06AFA3F
:103E6000029905F023F80399886109980790B0F941
:103E70000E0005F0CBF9049905F0B6F80599079AFC
:103E80009269069205F056FA0146069805F058FB2D
:103E9000079988610AB080BD70B59AB0199049F24F
:103EA0002C72C0F60002106851689268189217913F
:103EB000169049F24472C0F6000210685168926888
:103EC000159214911390199800F6C8006A46F724C9
:103ED000546102250C95156143F23331C3F63371F9
:103EE0000991D16091600021C4F27A410A91516038
:103EF00011600021C4F2C83107910022C4F22012DF
:103F0000089216AB00F05CFC099B0A99199800F620
:103F100042106A4654611561D3609360516011602C
:103F20000021C4F248410022C4F248220B9213AB94
:103F300000F046FC0799089A0A9BDDF824E049F254
:103F40003876C0F600063068D6F804C0B668129617
:103F5000CDF844C0109049F25076C0F600063068A3
:103F6000D6F804C0B6680F96CDF838C00D901998F1
:103F700000F5F260EC46CCF81440CCF81050CCF8C8
:103F80000CE0CCF808E0CCF80430CCF8003010ABF2
:103F900000F016FCDDF824C00A990B9ADDF830E039
:103FA000199800F60A006B465C61C3F810E0C3F88C
:103FB0000CC0C3F808C0596019600021C4F2FA416E
:103FC0000DAB00F0FDFB00201AB070BD80B582B0D3
:103FD00040F64030C2F20000019046F20041C4F2C7
:103FE000000101600221416000218160C1604FF445
:103FF000402202614FF4401242610176417681769F
:104000000122C27601774177FDF746F918B1FFE743
:10401000FCF79EFCFFE702B080BD000080B588B0D1
:10402000FFE741F21400C4F20200016841F001010F
:104030000160006800F0010007900798FFE70D207D
:1040400000900521049100220592FEF7ABF800983C
:10405000FEF79EF80499059A0E200190FEF7A2F84B
:104060000198FEF795F80499059A0F200290FEF743
:1040700099F80298FEF78CF80499059A102003909D
:10408000FEF790F80398FEF783F80499059A11203B
:104090000690FEF787F80698FEF77AF808B080BD1C
:1040A000B0B598B0002000901790169016A802F0B6
:1040B00071F8009940F62862C2F20002106049F2DD
:1040C0005C70C0F6000002684368D0F808C0D0F801
:1040D0000CE00469456914951394CDF848E0CDF8D7
:1040E00044C010930F92806915900FA802F068F8F1
:1040F000009940F63032C2F20002106049F2787046
:10410000C0F6000002684368D0F808C0D0F80CE0A0
:10411000046945690D950C94CDF82CE0CDF828C0C4
:104120000993089280690E9008A802F049F8009956
:1041300040F63C32C2F20002106049F29470C0F6C0
:10414000000002684368D0F808C0D0F80CE00469A9
:10415000456906950594CDF810E0CDF80CC00293A2
:1041600001928069079001A802F02AF840F62461C4
:10417000C2F20001086018B0B0BD000080B58AB07E
:1041800000200990089007900690FFE741F2180080
:10419000C4F20200016841F010010160006800F003
:1041A000100005900598FFE7FFE741F21800C4F200
:1041B0000200016841F020010160006800F0200069
:1041C00004900498FFE7FFE741F21800C4F20200F0
:1041D000016841F004010160006800F004000390F0
:1041E0000398FFE7FFE741F21800C4F202000168FC
:1041F00041F008010160006800F008000290029898
:10420000FFE740F60040C4F2010001904FF4405136
:1042100000910022FDF7D4FE00990198069101213A
:10422000079108910321099106A9FDF725FD0AB020
:1042300080BD000080B588B00021019107910691F2
:10424000059104910391029140F60450C2F20000DE
:104250004FF08042026041F61F424260816041F2AD
:104260008732C260016180218161FEF74FFD18B184
:10427000FFE7FCF76DFBFFE74FF48050049040F63A
:104280000450C2F2000004A9FEF70AFE18B1FFE7CD
:10429000FCF75EFBFFE700200290039040F604501D
:1042A000C2F2000002A9FEF7C3FC18B1FFE7FCF759
:1042B0004FFBFFE708B080BD80B582B040F64C50A0
:1042C000C2F20000019043F60001C4F20101016056
:1042D0004FF4E131416000218160C16001610C2235
:1042E00042618161C161FFF753FA18B1FFE7FCF742
:1042F0002FFBFFE702B080BD80B582B040F694503E
:10430000C2F20000019044F20041C4F200010160D9
:104310004FF4E131416000218160C16001610C22F4
:1043200042618161C161FFF733FA18B1FFE7FCF721
:104330000FFBFFE702B080BD80B582B040F6DC50D5
:10434000C2F20000019044F60001C4F200010160D5
:1043500048F2A061C0F2010141604FF480518160D8
:104360000021C1604FF4806202610C2242618161D0
:10437000C161FFF70DFA18B1FFE7FCF7E9FAFFE7B3
:1043800002B080BDFFE7FEE780B58CB00B900B98C4
:10439000C06A0A900A980B99C96B04F00BFE20B909
:1043A000FFE70B98C06B0A90FFE70B9A516B906B7D
:1043B000D26B019205F0C4F8019904F015FE099042
:1043C0000B98406B03900A98029009984FF07C512B
:1043D00004F0B0FF029904F0ADFF029904F0AAFFC7
:1043E000029902460398049204F0A4FF049904F091
:1043F0005DFD40F6DB71C4F2C90104F09BFF08903B
:104400000B98006B0590089804F08CFC0146059809
:1044100004F090FF07900B980690816AC06A04F040
:1044200045FD0699C86207980CB080BD84B0039022
:10443000029100200190FFE7019802280FDCFFE7BE
:104440000399019A002041F822000399019A01EB97
:104450008201C860FFE7019801300190ECE700207D
:104460000090FFE7009803280BDCFFE70398009912
:1044700000EB810100208861FFE700980130009087
:10448000F0E702980399886203990020C8620399B3
:104490000863039948630399886303994FF07E503A
:1044A000C86304B07047000084B0DDF810C003900A
:1044B000029101920093029803990863019803996D
:1044C000486300980399886304980399C863039923
:1044D0000020C86204B0704780B584B00390029198
:1044E00001920398029900F065FB03980C30019942
:1044F00000F060FB0399086980F00040886103992F
:10450000486980F00040C8610399486808620399CF
:104510008868486204B080BD82B001900091019922
:104520008889488100980178407840EA0120019903
:1045300088810199088AC88100988178C07840EA0A
:1045400001200199088200980179407940EA012010
:1045500001994882009880790199087502B07047E6
:1045600081B000900098B0F90A10B0F90C00401A20
:1045700010F5805F05DAFFE70099888D01308885A6
:10458000FFE70098B0F90A10B0F90C00401AB0F536
:10459000805F05DDFFE70099888D01388885FFE79A
:1045A0000099B1F90C00B1F92C2000EB4230886180
:1045B00001B07047FFE7FEE788B0079006910592CB
:1045C000079800F0070004900498C0F10700052840
:1045D00003D3FFE70420019004E00498C0F1070032
:1045E0000190FFE70198039004980430062803D84F
:1045F000FFE70020009003E0049803380090FFE7F5
:104600000098029006980399012202FA01F10139FB
:104610000840029B984005999A40013A114008438E
:1046200008B0704780B58EB00D900C910B920D982C
:1046300090F868000006002804D5FFE70D9801F007
:104640003DFCFFE70D994FF07E5048660C980D99A0
:1046500008610B980D9908600D990A91086809691D
:1046600004F06EFF0A9988610D98D0F8720028B1A5
:10467000FFE70D98D0F872108847FFE70D99049175
:104680004868896904F056FE049948620D9A0692BA
:1046900090689169526E059204F04CFE059904F001
:1046A00049FE069908630D9A0992D06807909069AF
:1046B000D169526E089204F043FF0146079804F056
:1046C00039FE089904F090FC0999C8620D98D0F859
:1046D000760028B1FFE70D98D0F876108847FFE7FD
:1046E0000D9890F868004007002804D5FFE70D9862
:1046F00001F060FCFFE70D9890F868008006002844
:1047000004D5FFE70D9801F063FAFFE70D9890F8E4
:1047100068008007002804D5FFE70D9801F0F8FA3B
:10472000FFE70D9890F868004006002804D5FFE7E1
:104730000D9801F0C3FAFFE70D9890F86800C007E4
:1047400020B1FFE70D9801F0FBFAFFE70D99019109
:10475000886A096B04F0AAFB019988620D9A03929A
:10476000506A916AD26A029204F0A0FB029904F0A6
:104770009DFB039948630D9890F86800C0060028D7
:1047800004D5FFE70D9801F04FFBFFE70D9801F00E
:1047900075FB0D9801F0EEFB0D99086948610D99C4
:1047A000486B88630D99C86AC8630D998869C861A8
:1047B0000D99086B08620D98406B0EB080BD00002B
:1047C00010B585B08C4686460C980B990A9C099CBE
:1047D000089C079CCDF810E0CDF80CC00292019324
:1047E000ADF802108DF8010002980499486403980E
:1047F0000499086404990020086001990968049AE2
:10480000516001994968049A916001998968049AF4
:10481000D160049908630799049A11650899049A6C
:1048200051650999049A91650A99049AD165049988
:1048300008669DF80110049A82F868100499C1F87E
:104840006D00C1F86900049981F87100049948630A
:1048500005B010BD000000000000000000000000D6
:10486000EFF30980BFF36F8F0D4B1A6820E9F00F4B
:1048700010602DE908404FF0500080F3118803F0DC
:1048800045F84FF0000080F31188BDE80840196832
:104890000868B0E8F00F80F30988BFF36F8F7047A6
:1048A000300F002082B00190019840F20001C2F266
:1048B00000010968C90844F6D352C1F26202A1FBA3
:1048C0000221890948430090FFE700BFFFE70098F5
:1048D000411E00910028F8D1FFE702B070470000A8
:1048E00082B00190009101984068C0F301300099B6
:1048F000087301984068C0F38130009948730198AB
:1049000000686FF3DF20A0F580600099488001986F
:104910000068C0F3CA20A0F58060009988800199E2
:1049200008684968800D40EA81206FF3DF20A0F518
:1049300080600099C88001984068C0F34A00A0F5E3
:10494000806000990881019800696FF3DF20A0F56D
:1049500080600099488102B07047000080B594B033
:104960008DF84F00129111929DF84F0001380146C9
:104970001091032800F203811099DFE811F0040080
:104980000500C100FF00FAE01298407B01460F913C
:10499000012853D0FFE70F98032840F0AF80FFE7CE
:1049A0001298B0F9080004F031FC11990E910968D1
:1049B0000D9149F6A631C3F6443104F0BBFC0D99C4
:1049C00004F074FA0E99086011990868496804F0B7
:1049D000F1FA20B9FFE7119840680C9003E01198B4
:1049E00000680C90FFE70C9811990860119908680D
:1049F000896804F0D8FA20B9FFE7119880680B9015
:104A000003E0119800680B90FFE70B98119908607C
:104A10001298B0F9060004F0F9FB11990A91C968DF
:104A2000099146F24201CBF6E53104F083FC0146E0
:104A3000099804F03BFA0A99C86060E040F6D0207B
:104A4000C2F2000090F83200F8B1FFE740F6D02043
:104A5000C2F200000790C0690021C4F2B43106918F
:104A600004F0C2FA4FF08C41089104F063FC0699FF
:104A700002460798119B1A60006A04F0B5FA08997B
:104A800004F058FC1199C86013E040F2A800C2F28B
:104A900000000590D0F8300604F0B8FB01460598F8
:104AA000119A1160D0F8F80404F0B0FB1199C860B5
:104AB000FFE711990868496804F07CFA20B9FFE71C
:104AC00011984068049003E0119800680490FFE793
:104AD00004981199086011990868896804F063FACC
:104AE00020B9FFE711988068039003E011980068EF
:104AF0000390FFE703981199086000E0FFE73EE0AC
:104B000040F6D020C2F20000C069119908601199E6
:104B10000868496804F04EFA20B9FFE71198406828
:104B2000029003E0119800680290FFE70298119943
:104B3000086011990868896804F035FA20B9FFE720
:104B400011988068019003E0119800680190FFE7D8
:104B500001981199086040F6D020C2F20000016A65
:104B60000091806A41F26F21C3F6832104F0E2FBD9
:104B7000009904F09BF91199C86000E0FFE714B0B8
:104B800080BD0000000000000000000000000000E8
:104B9000074B19680868B0E8F00F80F30988BFF385
:104BA0006F8F4FF0000080F311884EF00D0E7047AC
:104BB000300F002082B00190009101994868886010
:104BC00001990868486000980199086002B0704730
:104BD00080B5322001F0C4FAFFE740F60040C4F28D
:104BE00001004FF48051FDF7D7F94FF4FA7001F04E
:104BF000B7FAF2E780B582B0FBF748FCFFE740F276
:104C00007000C2F2000001902C30FBF795FD019975
:104C10008861FBF7B5FD01460198416240F2A801A9
:104C2000C2F2000101F0E2F9019A40F68821C2F2D5
:104C300000010320FFF792FE012001F091FADEE768
:104C400080B582B0FFE740F27000C2F20000019030
:104C50003030FBF771FD0199C86140F68820C2F23F
:104C60000000FBF7E7FC40F6D020C2F2000000F0A5
:104C700041FE012001F074FAE5E7000080B582B042
:104C80004FF0500080F31188BFF36F8FBFF34F8F49
:104C9000009003F04BFC40B1FFE74EF60451CEF21A
:104CA00000014FF080500860FFE70020019001985C
:104CB00080F3118802B080BD80B590B006A8009046
:104CC0002821FBF73EFB00980023059304930393F0
:104CD00002930193012206924FF4803107910893C9
:104CE0000A9202220D920E914FF4E0110F91FDF7FE
:104CF00059FC18B1FFE7FBF72BFEFFE70F200190EF
:104D000002210291002003904FF4806204920590EA
:104D100001A8FDF769FA18B1FFE7FBF719FEFFE7F5
:104D200010B080BD7047000080B540F6BC40C2F2B4
:104D30000000FEF77BF980BD80B540F60450C2F25A
:104D40000000FEF773F980BD83B0029001910298D4
:104D500000680090029842F60041C4F201018842C6
:104D600015D0FFE70298B0F1804F10D0FFE702980E
:104D700040F20041C4F20001884208D0FFE70298E7
:104D800040F60001C4F2000188420AD1FFE7009812
:104D900020F070000090019841680098084300904E
:104DA000FFE7029842F60041C4F20101884215D0A3
:104DB000FFE70298B0F1804F10D0FFE7029840F271
:104DC0000041C4F20001884208D0FFE7029840F693
:104DD0000001C4F2000188420AD1FFE7009820F4E4
:104DE000407000900198C168009808430090FFE768
:104DF000009820F0800001994969084300900098CC
:104E000002990860019880680299C8620198006858
:104E100002998862029842F60041C4F20101884278
:104E200005D1FFE70198006902990863FFE702993D
:104E30000120486102980069C00730B1FFE702997C
:104E4000086920F001000861FFE703B07047000027
:104E500085B00490039102920193049880680090B9
:104E6000009820F47F40009003980299019A41EA4B
:104E7000022101430098084300900098049988603B
:104E800005B0704783B0029001910298806800904D
:104E9000009820F07000009001980099084340F0BD
:104EA0000700009000980299886003B070470000E6
:104EB00085B00490039102920498006A00900499CE
:104EC000086A20F001000862049880690190019846
:104ED00020F0F00001900299019840EA0110019041
:104EE000009820F00A000090039900980843009071
:104EF00001980499886100980499086205B0704788
:104F000085B00490039102920498006A009004997D
:104F1000086A20F0100008620498806901900198E6
:104F200020F4704001900299019840EA013001900C
:104F3000009820F0A00000900399009840EA01102A
:104F4000009001980499886100980499086205B05E
:104F50007047000080B582B001900198406A0090CF
:104F600000990020C8850099C8840098FEF7F6F9DA
:104F700002B080BD80B584B00390002002900398F9
:104F8000406A0190019800684069C0B2C00902906F
:104F9000019890F8410021280AD1FFE7029838B122
:104FA000FFE701990020C884019800F05DF9FFE750
:104FB000019800684069C0F380100290019890F851
:104FC000420022280AD1FFE7029838B1FFE7019991
:104FD0000020C885019800F0E9F8FFE70199486CC6
:104FE00040F0100048640198FEF7B8F904B080BDA5
:104FF00080B586B005900598406A049005980068D1
:105000000068800600285AD4FFE704990020C8856C
:10501000FFE7FFE70498006850E8030F20F4807072
:105020000390FFE703990498026842E80310002800
:10503000F0D1FFE7FFE7FFE7FFE70498006850E8DB
:10504000050F20F001000290FFE702990498026822
:1050500042E805100028F0D1FFE7FFE7FFE7FFE790
:105060000498006850E8050F20F040000190FFE729
:1050700001990498026842E805100028F0D1FFE782
:10508000FFE70499202081F842000498006B012872
:1050900014D1FFE7FFE7FFE70498006850E8030F2B
:1050A00020F010000090FFE700990498026842E8A1
:1050B00003100028F0D1FFE7FFE7FFE7FFE70499BF
:1050C000002048630498006B012805D1FFE704988D
:1050D000818DFEF7D7F803E00498FEF781FDFFE726
:1050E00006B080BD80B582B001900198406A009002
:1050F0000099012048630098006B012806D1FFE762
:105100000098818D4908FEF7BDF803E00098FEF78E
:1051100089FDFFE702B080BD80B584B0039003989D
:10512000406A0290039800680068800600282AD42C
:10513000FFE702990020C884FFE7FFE702980068B4
:1051400050E8050F20F080000190FFE701990298D8
:10515000026842E805100028F0D1FFE7FFE7FFE70B
:10516000FFE70298006850E8030F40F0400000900D
:10517000FFE700990298026842E803100028F0D186
:10518000FFE7FFE703E00298FEF7C2FDFFE704B088
:1051900080BD000080B582B001900198406A009007
:1051A0000098FEF7B9FD02B080BD000084B0039006
:1051B000FFE7FFE70398006850E8030F20F49070C2
:1051C0000290FFE702990398026842E80310002862
:1051D000F0D1FFE7FFE7FFE7FFE70398006850E83B
:1051E000050F20F001000190FFE701990398026884
:1051F00042E805100028F0D1FFE7FFE70398006BB5
:10520000012814D1FFE7FFE7FFE70398006850E8A3
:10521000030F20F010000090FFE700990398026848
:1052200042E803100028F0D1FFE7FFE7FFE703990A
:10523000202081F8420003990020086304B07047E1
:1052400080B582B0019001980168C86820F04000E4
:10525000C8600199202081F841000198FEF758FDAF
:10526000002002B080BD000082B00190FFE7FFE7A0
:105270000198006850E8030F20F0C0000090FFE79D
:1052800000990198026842E803100028F0D1FFE776
:10529000FFE70199202081F8410002B0704700002B
:1052A00080B586B00490049890F84200222840F01F
:1052B000A480FFE704988068B0F5805F15D1FFE710
:1052C0000498006988B9FFE7002003900498806A79
:1052D00002900498006840686FF35F20029908808C
:1052E0000499886A0230886225E00498806A0390F5
:1052F0000020029004988068B0F5805F08D0FFE736
:105300000498806850B9FFE70498006930B9FFE756
:105310000498006840680399087007E004980068E2
:10532000406800F07F0003990870FFE70499886ADD
:1053300001308862FFE70499C88D0138C8850004F0
:10534000002856D1FFE704980168C86820F02000C3
:10535000C86004980168C86820F48070C860049828
:105360000168486920F0010048610499202081F813
:1053700042000499002048630498006B012830D152
:10538000FFE7049900200863FFE7FFE7049800683F
:1053900050E8030F20F010000190FFE701990498F6
:1053A000026842E803100028F0D1FFE7FFE7049805
:1053B00000680068C00600280ED5FFE7FFE7002060
:1053C00000900498006800680090049800684068A5
:1053D00000900098FFE7FFE70498818DFDF752FFEA
:1053E00003E00498FEF7FCFBFFE700208DF81700B0
:1053F00007E000208DF8170003E002208DF8170069
:10540000FFE79DF8170006B080BD000080B584B0AE
:10541000039003980068006920F44050039A1168D3
:10542000D26810430861039988680A694969104382
:105430000843029003980068C06841F20C618843F9
:105440000299084303990968C86003980068406995
:1054500020F44070039A11689269104348610398E0
:10546000006843F60001C4F20101884204D1FFE75D
:10547000FDF728F8019003E0FDF712F80190FFE72F
:10548000019819214843039A116852689200B0FBB1
:10549000F2FC48F21F52C5F2EB12ACFB023043099A
:1054A000642003FB10CC322000EB0C10A0FB0202A6
:1054B000F02000EA521000EB0310C2F34312104434
:1054C000886004B080BD000080B588B00790069168
:1054D000ADF81620069807998862BDF8160007995E
:1054E0008885079900204864079A222182F8421093
:1054F0000799CA6B44F6F171C0F6000191620799F1
:10550000CA6B45F2E501C0F60001D1620799CA6B8A
:1055100044F67571C0F6000111630799C96B4863C1
:1055200006A8049007980168C06B0431049A1268B9
:10553000BDF81630FCF73AFBFFE700200390079810
:10554000006800680390079800684068039003981B
:10555000FFE707980069A0B1FFE7FFE7FFE70798BB
:10556000006850E8030F40F480700290FFE7029952
:105570000798026842E803100028F0D1FFE7FFE730
:10558000FFE7FFE7FFE70798006850E8050F40F0E6
:1055900001000190FFE701990798026842E80510B1
:1055A0000028F0D1FFE7FFE7FFE7FFE70798006873
:1055B00050E8050F40F040000090FFE70099079881
:1055C000026842E805100028F0D1FFE7FFE700205D
:1055D00008B080BD83B00190019890F84100212867
:1055E0003AD1FFE701988068B0F5805F13D1FFE7FB
:1055F0000198006978B9FFE70198006A0090009867
:1056000000886FF35F200199096848600199086A72
:105610000230086208E0019A106A411C11620078A9
:10562000019909684860FFE70199C88C0138C8846E
:10563000000468B9FFE701980168C86820F080009D
:10564000C86001980168C86840F04000C860FFE782
:1056500000208DF80B0003E002208DF80B00FFE71F
:105660009DF80B0003B0704780B582B040F64C50F7
:10567000C2F200000190FDF775FE019800F030F8CD
:1056800002B080BD80B582B040F69450C2F20000F6
:105690000190FDF767FE019800F022F802B080BD8E
:1056A00080B582B040F6DC50C2F200000190FDF7F8
:1056B00059FE019800F014F802B080BD80B540F6A4
:1056C0004030C2F20000FBF7EDFB80BD80B540F634
:1056D0004030C2F20000FBF7E5FB80BDFFE7FEE7CC
:1056E00080B588B007900798006843F60001C4F2BF
:1056F0000101884201D1FFE7FFE70798006844F203
:105700000041C4F2000188422FD1FFE740F69450D7
:10571000C2F2000000680068C006002824D5FFE738
:10572000FFE70020069040F69450C2F200000168A6
:10573000096806910068406806900698FFE740F601
:105740009450C2F200000490FDF7A2FD40F6D02173
:10575000C2F200010391084600F0E4F803990498AE
:105760001522FEF711FAFFE7FFE70798006844F6F5
:105770000001C4F20001884234D1FFE740F6DC505A
:10578000C2F2000000680068C006002829D5FFE7C3
:10579000FFE70020059040F6DC50C2F200000168EF
:1057A000096805910068406805900598FFE740F694
:1057B000DC50C2F200000190FDF76AFD40F688213E
:1057C000C2F200010020088040F69820C2F20000DA
:1057D0000290FFF785F8019802991322FEF7D4F999
:1057E000FFE7FFE708B080BD80B586B0DDF834C0C4
:1057F000DDF830C0DDF82CC0DDF828C0DDF824C0AD
:10580000DDF820C0059004910392029300208DF8EA
:105810000700059A9DF80730591C8DF8071040F6CF
:105820000431C2F2000141F82320049A9DF80730A8
:1058300003F1010C8DF807C041F82320039A9DF86D
:10584000073003F1010C8DF807C041F82320029ABC
:105850009DF8073003F1010C8DF807C041F82320B3
:10586000089A9DF8073003F1010C8DF807C041F844
:105870002320099A9DF8073003F1010C8DF807C029
:1058800041F823200A9A9DF8073003F1010C8DF8A6
:1058900007C041F823200B9A9DF8073003F1010C53
:1058A0008DF807C041F823200C9A9DF8073003F1CA
:1058B000010C8DF807C041F823200D9A9DF80730A0
:1058C00003F1010C8DF807C041F8232081F828006E
:1058D00081F82900802081F82A007F2081F82B00A0
:1058E00040F69450C2F200002C22FEF79FF906B059
:1058F00080BD000081B000900098008EB0F57A7FE6
:1059000005DAFFE70099088E01300886FFE7009965
:105910000A8E0020B2F57A7FB8BF012081F83200EC
:1059200001B0704785B0039002910299012008866A
:1059300000208DF8030003989DF803104A1C8DF891
:105940000320405C029908760298007ECD2804D09E
:10595000FFE7FF208DF81300D5E003989DF80310B2
:105960004A1C8DF80320405C8DF8040003989DF8D4
:1059700003104A1C8DF80320405C8DF80500039845
:105980009DF803104A1C8DF80320405C8DF806003A
:1059900003989DF803104A1C8DF80320405C8DF895
:1059A000070001980299C86103989DF803104A1CEA
:1059B0008DF80320405C8DF8040003989DF80310D7
:1059C0004A1C8DF80320405C8DF8050003989DF873
:1059D00003104A1C8DF80320405C8DF806000398E4
:1059E0009DF803104A1C8DF80320405C8DF80700D9
:1059F00001980299086203989DF803104A1C8DF8DB
:105A00000320405C8DF8040003989DF803104A1CA5
:105A10008DF80320405C8DF8050003989DF8031075
:105A20004A1C8DF80320405C8DF8060003989DF811
:105A300003104A1C8DF80320405C8DF80700019884
:105A40000299486203989DF803104A1C8DF80320C0
:105A5000405C8DF8040003989DF803104A1C8DF8F3
:105A60000320405C8DF8050003989DF803104A1C44
:105A70008DF80320405C8DF8060003989DF8031014
:105A80004A1C8DF80320405C8DF8070001980299AC
:105A9000886203989DF803104A1C8DF80320405C2F
:105AA0008DF8040003989DF803104A1C8DF803201C
:105AB000405C8DF8050003989DF803104A1C8DF892
:105AC0000320405C8DF8060003989DF803104A1CE3
:105AD0008DF80320405C8DF8070001980299C86298
